{
  "address": "0x59eE2de83b559e5cC2Afb930F29abeA3dBB4cc9D",
  "abi": [
    {
      "type": "function",
      "name": "acceptManagership",
      "inputs": [],
      "outputs": [],
      "stateMutability": "nonpayable"
    },
    {
      "type": "function",
      "name": "addSolver",
      "inputs": [
        {
          "name": "solver",
          "type": "address",
          "internalType": "address"
        }
      ],
      "outputs": [],
      "stateMutability": "nonpayable"
    },
    {
      "type": "function",
      "name": "cancelManagerTransfer",
      "inputs": [],
      "outputs": [],
      "stateMutability": "nonpayable"
    },
    {
      "type": "function",
      "name": "getStorageAt",
      "inputs": [
        {
          "name": "offset",
          "type": "uint256",
          "internalType": "uint256"
        },
        {
          "name": "length",
          "type": "uint256",
          "internalType": "uint256"
        }
      ],
      "outputs": [
        {
          "name": "",
          "type": "bytes",
          "internalType": "bytes"
        }
      ],
      "stateMutability": "view"
    },
    {
      "type": "function",
      "name": "initializeManager",
      "inputs": [
        {
          "name": "manager_",
          "type": "address",
          "internalType": "address"
        }
      ],
      "outputs": [],
      "stateMutability": "nonpayable"
    },
    {
      "type": "function",
      "name": "isSolver",
      "inputs": [
        {
          "name": "prospectiveSolver",
          "type": "address",
          "internalType": "address"
        }
      ],
      "outputs": [
        {
          "name": "",
          "type": "bool",
          "internalType": "bool"
        }
      ],
      "stateMutability": "view"
    },
    {
      "type": "function",
      "name": "manager",
      "inputs": [],
      "outputs": [
        {
          "name": "",
          "type": "address",
          "internalType": "address"
        }
      ],
      "stateMutability": "view"
    },
    {
      "type": "function",
      "name": "pendingManager",
      "inputs": [],
      "outputs": [
        {
          "name": "",
          "type": "address",
          "internalType": "address"
        }
      ],
      "stateMutability": "view"
    },
    {
      "type": "function",
      "name": "proposeManager",
      "inputs": [
        {
          "name": "manager_",
          "type": "address",
          "internalType": "address"
        }
      ],
      "outputs": [],
      "stateMutability": "nonpayable"
    },
    {
      "type": "function",
      "name": "removeSolver",
      "inputs": [
        {
          "name": "solver",
          "type": "address",
          "internalType": "address"
        }
      ],
      "outputs": [],
      "stateMutability": "nonpayable"
    },
    {
      "type": "function",
      "name": "setManager",
      "inputs": [
        {
          "name": "manager_",
          "type": "address",
          "internalType": "address"
        }
      ],
      "outputs": [],
      "stateMutability": "nonpayable"
    },
    {
      "type": "function",
      "name": "simulateDelegatecall",
      "inputs": [
        {
          "name": "targetContract",
          "type": "address",
          "internalType": "address"
        },
        {
          "name": "calldataPayload",
          "type": "bytes",
          "internalType": "bytes"
        }
      ],
      "outputs": [
        {
          "name": "response",
          "type": "bytes",
          "internalType": "bytes"
        }
      ],
      "stateMutability": "nonpayable"
    },
    {
      "type": "function",
      "name": "simulateDelegatecallInternal",
      "inputs": [
        {
          "name": "targetContract",
          "type": "address",
          "internalType": "address"
        },
        {
          "name": "calldataPayload",
          "type": "bytes",
          "internalType": "bytes"
        }
      ],
      "outputs": [
        {
          "name": "response",
          "type": "bytes",
          "internalType": "bytes"
        }
      ],
      "stateMutability": "nonpayable"
    },
    {
      "type": "event",
      "name": "ManagerChanged",
      "inputs": [
        {
          "name": "newManager",
          "type": "address",
          "indexed": false,
          "internalType": "address"
        },
        {
          "name": "oldManager",
          "type": "address",
          "indexed": false,
          "internalType": "address"
        }
      ],
      "anonymous": false
    },
    {
      "type": "event",
      "name": "ManagerTransferCancelled",
      "inputs": [
        {
          "name": "cancelledPendingManager",
          "type": "address",
          "indexed": false,
          "internalType": "address"
        }
      ],
      "anonymous": false
    },
    {
      "type": "event",
      "name": "ManagerTransferProposed",
      "inputs": [
        {
          "name": "pendingManager",
          "type": "address",
          "indexed": false,
          "internalType": "address"
        },
        {
          "name": "currentManager",
          "type": "address",
          "indexed": false,
          "internalType": "address"
        }
      ],
      "anonymous": false
    },
    {
      "type": "event",
      "name": "SolverAdded",
      "inputs": [
        {
          "name": "solver",
          "type": "address",
          "indexed": false,
          "internalType": "address"
        }
      ],
      "anonymous": false
    },
    {
      "type": "event",
      "name": "SolverRemoved",
      "inputs": [
        {
          "name": "solver",
          "type": "address",
          "indexed": false,
          "internalType": "address"
        }
      ],
      "anonymous": false
    }
  ],
  "args": [],
  "numDeployments": 2,
  "bytecode": "0x608060405234801561001057600080fd5b50611384806100206000396000f3fe608060405234801561001057600080fd5b50600436106100df5760003560e01c80638fd57b921161008c578063d21afcc011610066578063d21afcc014610362578063ec58f4b814610395578063f84436bd146103c8578063fd3a77db1461048b576100df565b80638fd57b92146102f4578063a00fff6f14610327578063d0ebdbe71461032f576100df565b8063481c6a75116100bd578063481c6a751461026d5780635624b25b1461029e5780637f7120fe146102c1576100df565b806302cc250d146100e4578063139085151461012b57806343218e1914610135575b600080fd5b610117600480360360208110156100fa57600080fd5b503573ffffffffffffffffffffffffffffffffffffffff16610493565b604080519115158252519081900360200190f35b6101336104be565b005b6101f86004803603604081101561014b57600080fd5b73ffffffffffffffffffffffffffffffffffffffff823516919081019060408101602082013564010000000081111561018357600080fd5b82018360208201111561019557600080fd5b803590602001918460018302840111640100000000831117156101b757600080fd5b91908080601f0160208091040260200160405190810160405280939291908181526020018383808284376000920191909152509295506105ec945050505050565b6040805160208082528351818301528351919283929083019185019080838360005b8381101561023257818101518382015260200161021a565b50505050905090810190601f16801561025f5780820380516001836020036101000a031916815260200191505b509250505060405180910390f35b610275610764565b6040805173ffffffffffffffffffffffffffffffffffffffff9092168252519081900360200190f35b6101f8600480360360408110156102b457600080fd5b5080359060200135610786565b610133600480360360208110156102d757600080fd5b503573ffffffffffffffffffffffffffffffffffffffff166107fc565b6101336004803603602081101561030a57600080fd5b503573ffffffffffffffffffffffffffffffffffffffff166109ad565b610275610abc565b6101336004803603602081101561034557600080fd5b503573ffffffffffffffffffffffffffffffffffffffff16610ad8565b6101336004803603602081101561037857600080fd5b503573ffffffffffffffffffffffffffffffffffffffff16610cb5565b610133600480360360208110156103ab57600080fd5b503573ffffffffffffffffffffffffffffffffffffffff16610df5565b6101f8600480360360408110156103de57600080fd5b73ffffffffffffffffffffffffffffffffffffffff823516919081019060408101602082013564010000000081111561041657600080fd5b82018360208201111561042857600080fd5b8035906020019184600183028401116401000000008311171561044a57600080fd5b91908080601f016020809104026020016040519081016040528093929190818152602001838380828437600092019190915250929550610f08945050505050565b610133611151565b73ffffffffffffffffffffffffffffffffffffffff1660009081526001602052604090205460ff1690565b60005462010000900473ffffffffffffffffffffffffffffffffffffffff163314806105065750336104ee611317565b73ffffffffffffffffffffffffffffffffffffffff16145b61057157604080517f08c379a000000000000000000000000000000000000000000000000000000000815260206004820152601460248201527f475076323a206e6f7420617574686f72697a6564000000000000000000000000604482015290519081900360640190fd5b600280547fffffffffffffffffffffffff000000000000000000000000000000000000000081169091556040805173ffffffffffffffffffffffffffffffffffffffff909216808352905190917f6616997229a8f19572e9ae1315c6700321a74a441ada754c557199bbdc706154919081900360200190a150565b606060008373ffffffffffffffffffffffffffffffffffffffff16836040518082805190602001908083835b6020831061065557805182527fffffffffffffffffffffffffffffffffffffffffffffffffffffffffffffffe09092019160209182019101610618565b6001836020036101000a038019825116818451168082178552505050505050905001915050600060405180830381855af49150503d80600081146106b5576040519150601f19603f3d011682016040523d82523d6000602084013e6106ba565b606091505b50809350819250505061075d82826040516020018083805190602001908083835b6020831061071857805182527fffffffffffffffffffffffffffffffffffffffffffffffffffffffffffffffe090920191602091820191016106db565b6001836020036101000a03801982511681845116808217855250505050505090500182151560f81b81526001019250505060405160208183030381529060405261133c565b5092915050565b60005462010000900473ffffffffffffffffffffffffffffffffffffffff1681565b606060008260200267ffffffffffffffff811180156107a457600080fd5b506040519080825280601f01601f1916602001820160405280156107cf576020820181803683370190505b50905060005b838110156107f257848101546020808302840101526001016107d5565b5090505b92915050565b600054610100900460ff16806108155750610815611344565b80610823575060005460ff16155b61088e57604080517f08c379a000000000000000000000000000000000000000000000000000000000815260206004820152601a60248201527f496e697469616c697a61626c653a20696e697469616c697a6564000000000000604482015290519081900360640190fd5b600054610100900460ff161580156108f457600080547fffffffffffffffffffffffffffffffffffffffffffffffffffffffffffffff007fffffffffffffffffffffffffffffffffffffffffffffffffffffffffffff00ff909116610100171660011790555b600080547fffffffffffffffffffff0000000000000000000000000000000000000000ffff166201000073ffffffffffffffffffffffffffffffffffffffff851690810291909117825560408051918252602082019290925281517f605c2dbf762e5f7d60a546d42e7205dcb1b011ebc62a61736a57c9089d3a4350929181900390910190a180156109a957600080547fffffffffffffffffffffffffffffffffffffffffffffffffffffffffffff00ff1690555b5050565b60005462010000900473ffffffffffffffffffffffffffffffffffffffff163314610a3957604080517f08c379a000000000000000000000000000000000000000000000000000000000815260206004820152601860248201527f475076323a2063616c6c6572206e6f74206d616e616765720000000000000000604482015290519081900360640190fd5b73ffffffffffffffffffffffffffffffffffffffff811660008181526001602090815260409182902080547fffffffffffffffffffffffffffffffffffffffffffffffffffffffffffffff00169055815192835290517f640e18a2587e1d83e4fdabf70257d0a800ca4b2c1aaad1dfc485a4ad8bbbd6c69281900390910190a150565b60025473ffffffffffffffffffffffffffffffffffffffff1681565b60005462010000900473ffffffffffffffffffffffffffffffffffffffff16331480610b20575033610b08611317565b73ffffffffffffffffffffffffffffffffffffffff16145b610b8b57604080517f08c379a000000000000000000000000000000000000000000000000000000000815260206004820152601460248201527f475076323a206e6f7420617574686f72697a6564000000000000000000000000604482015290519081900360640190fd5b6000805473ffffffffffffffffffffffffffffffffffffffff838116620100009081027fffffffffffffffffffff0000000000000000000000000000000000000000ffff841617909355600254929091048116911615610c5f57600280547fffffffffffffffffffffffff000000000000000000000000000000000000000081169091556040805173ffffffffffffffffffffffffffffffffffffffff909216808352905190917f6616997229a8f19572e9ae1315c6700321a74a441ada754c557199bbdc706154919081900360200190a1505b6040805173ffffffffffffffffffffffffffffffffffffffff80851682528316602082015281517f605c2dbf762e5f7d60a546d42e7205dcb1b011ebc62a61736a57c9089d3a4350929181900390910190a15050565b60005462010000900473ffffffffffffffffffffffffffffffffffffffff16331480610cfd575033610ce5611317565b73ffffffffffffffffffffffffffffffffffffffff16145b610d6857604080517f08c379a000000000000000000000000000000000000000000000000000000000815260206004820152601460248201527f475076323a206e6f7420617574686f72697a6564000000000000000000000000604482015290519081900360640190fd5b600280547fffffffffffffffffffffffff00000000000000000000000000000000000000001673ffffffffffffffffffffffffffffffffffffffff8381169182179092556000546040805192835262010000909104909216602082015281517fce60cba642b041029ec24fb21b6d5844c022b65c4c0ddd7b90495c9b286aa9ad929181900390910190a150565b60005462010000900473ffffffffffffffffffffffffffffffffffffffff163314610e8157604080517f08c379a000000000000000000000000000000000000000000000000000000000815260206004820152601860248201527f475076323a2063616c6c6572206e6f74206d616e616765720000000000000000604482015290519081900360640190fd5b73ffffffffffffffffffffffffffffffffffffffff811660008181526001602081815260409283902080547fffffffffffffffffffffffffffffffffffffffffffffffffffffffffffffff0016909217909155815192835290517f41f9d09dd5159251f8a8e482bbe097b7c01a5e6f70c5a0ddb494906464fc9dd79281900390910190a150565b606060006343218e1960e01b8484604051602401808373ffffffffffffffffffffffffffffffffffffffff16815260200180602001828103825283818151815260200191508051906020019080838360005b83811015610f72578181015183820152602001610f5a565b50505050905090810190601f168015610f9f5780820380516001836020036101000a031916815260200191505b50604080517fffffffffffffffffffffffffffffffffffffffffffffffffffffffffffffffe08184030181529181526020820180517bffffffffffffffffffffffffffffffffffffffffffffffffffffffff167fffffffff00000000000000000000000000000000000000000000000000000000909816979097178752518151919750309688965090945084935091508083835b6020831061107057805182527fffffffffffffffffffffffffffffffffffffffffffffffffffffffffffffffe09092019160209182019101611033565b6001836020036101000a0380198251168184511680821785525050505050509050019150506000604051808303816000865af19150503d80600081146110d2576040519150601f19603f3d011682016040523d82523d6000602084013e6110d7565b606091505b509050809250506000826001845103815181106110f057fe5b602001015160f81c60f81b7effffffffffffffffffffffffffffffffffffffffffffffffffffffffffffff1916600160f81b14905061113383600185510361134a565b80156111405750506107f6565b6111498361133c565b505092915050565b60025473ffffffffffffffffffffffffffffffffffffffff166111d557604080517f08c379a000000000000000000000000000000000000000000000000000000000815260206004820152601860248201527f475076323a206e6f2070656e64696e67206d616e616765720000000000000000604482015290519081900360640190fd5b60025473ffffffffffffffffffffffffffffffffffffffff16331461125b57604080517f08c379a000000000000000000000000000000000000000000000000000000000815260206004820181905260248201527f475076323a2063616c6c6572206e6f742070656e64696e67206d616e61676572604482015290519081900360640190fd5b600080546002805473ffffffffffffffffffffffffffffffffffffffff818116620100009081027fffffffffffffffffffff0000000000000000000000000000000000000000ffff861617958690557fffffffffffffffffffffffff000000000000000000000000000000000000000090921690925560408051948290048316855292041660208301819052815190927f605c2dbf762e5f7d60a546d42e7205dcb1b011ebc62a61736a57c9089d3a435092908290030190a150565b7fb53127684a568b3173ae13b9f8a6016e243e63b6e8ee1178d6a717850b5d61035490565b805160208201fd5b303b1590565b905256fea2646970667358221220e674ee5ed5e384c90905640be253a4a6728b291d7bf6af6e170829fbbc6bfe9d64736f6c63430007060033",
  "devdoc": {
    "kind": "dev",
    "methods": {
      "acceptManagership()": {
        "details": "MED-1: two-step manager transfer — step 2 of 2. Accept the pending manager role. Only callable by the address previously proposed via `proposeManager`. On success: `manager` is updated, `pendingManager` is cleared, and `ManagerChanged` fires (matching the same event the single-step `setManager` emits). The caller is now the manager."
      },
      "addSolver(address)": {
        "details": "Add an address to the set of allowed solvers. This method can only be called by the contract manager. This function is idempotent.",
        "params": {
          "solver": "The solver address to add."
        }
      },
      "cancelManagerTransfer()": {
        "details": "MED-1: cancel a pending two-step manager transfer. Callable by the current manager or the proxy admin. No-op if no pending transfer exists (but still emits the event with `address(0)` for log-symmetry)."
      },
      "getStorageAt(uint256,uint256)": {
        "details": "Reads `length` bytes of storage in the currents contract",
        "params": {
          "length": "- the number of words (32 bytes) of data to read",
          "offset": "- the offset in the current contract's storage in words to start reading from"
        },
        "returns": {
          "_0": "the bytes that were read."
        }
      },
      "initializeManager(address)": {
        "details": "Initialize the manager to a value. This method is a contract initializer that is called exactly once after creation. An initializer is used instead of a constructor so that this contract can be used behind a proxy. This initializer is idempotent.",
        "params": {
          "manager_": "The manager to initialize the contract with."
        }
      },
      "isSolver(address)": {
        "details": "determines whether the provided address is an authenticated solver.",
        "params": {
          "prospectiveSolver": "the address of prospective solver."
        },
        "returns": {
          "_0": "true when prospectiveSolver is an authenticated solver, otherwise false."
        }
      },
      "proposeManager(address)": {
        "details": "MED-1 (2026-05-22 ToB-suite audit): two-step manager transfer — step 1 of 2. Propose a new manager. The proposed address must call `acceptManagership` to complete the transfer. Until then, `manager` is unchanged. Typo-resistant: if `manager_` is a typo (no one controls that address), the proposal cannot be accepted and the current manager remains in control. The proposal can be cancelled or overwritten by the current manager (or proxy admin) via `cancelManagerTransfer` or by calling `proposeManager` again with a different address.",
        "params": {
          "manager_": "The address proposed as the next manager."
        }
      },
      "removeSolver(address)": {
        "details": "Removes an address to the set of allowed solvers. This method can only be called by the contract manager. This function is idempotent.",
        "params": {
          "solver": "The solver address to remove."
        }
      },
      "setManager(address)": {
        "details": "Set the manager for this contract. This method can be called by the current manager (if they want to to reliquish the role and give it to another address) or the contract owner (i.e. the proxy admin). **WARNING — single-step transfer (typo-risk)**: this function changes the manager INSTANTLY. A typo in `manager_` permanently locks solver-allowlist control. For typo-resistant transfers, prefer `proposeManager` + `acceptManagership` (MED-1, two-step pattern). `setManager` is retained for backwards compatibility + the emergency-rescue path when the proxy admin needs to override a non-responsive manager without waiting for acceptance.",
        "params": {
          "manager_": "The new contract manager address."
        }
      },
      "simulateDelegatecall(address,bytes)": {
        "details": "Performs a delegetecall on a targetContract in the context of self. Internally reverts execution to avoid side effects (making it static). Catches revert and returns encoded result as bytes.",
        "params": {
          "calldataPayload": "Calldata that should be sent to the target contract (encoded method name and arguments).",
          "targetContract": "Address of the contract containing the code to execute."
        }
      },
      "simulateDelegatecallInternal(address,bytes)": {
        "details": "Performs a delegetecall on a targetContract in the context of self. Internally reverts execution to avoid side effects (making it static). Returns encoded result as revert message concatenated with the success flag of the inner call as a last byte.",
        "params": {
          "calldataPayload": "Calldata that should be sent to the target contract (encoded method name and arguments).",
          "targetContract": "Address of the contract containing the code to execute."
        }
      }
    },
    "version": 1
  },
  "userdoc": {
    "kind": "user",
    "methods": {},
    "version": 1
  },
  "storageLayout": {
    "storage": [
      {
        "astId": 316,
        "contract": "src/contracts/GPv2AllowListAuthentication.sol:GPv2AllowListAuthentication",
        "label": "_initialized",
        "offset": 0,
        "slot": "0",
        "type": "t_bool"
      },
      {
        "astId": 319,
        "contract": "src/contracts/GPv2AllowListAuthentication.sol:GPv2AllowListAuthentication",
        "label": "_initializing",
        "offset": 1,
        "slot": "0",
        "type": "t_bool"
      },
      {
        "astId": 15,
        "contract": "src/contracts/GPv2AllowListAuthentication.sol:GPv2AllowListAuthentication",
        "label": "manager",
        "offset": 2,
        "slot": "0",
        "type": "t_address"
      },
      {
        "astId": 20,
        "contract": "src/contracts/GPv2AllowListAuthentication.sol:GPv2AllowListAuthentication",
        "label": "solvers",
        "offset": 0,
        "slot": "1",
        "type": "t_mapping(t_address,t_bool)"
      },
      {
        "astId": 23,
        "contract": "src/contracts/GPv2AllowListAuthentication.sol:GPv2AllowListAuthentication",
        "label": "pendingManager",
        "offset": 0,
        "slot": "2",
        "type": "t_address"
      }
    ],
    "types": {
      "t_address": {
        "encoding": "inplace",
        "label": "address",
        "numberOfBytes": "20"
      },
      "t_bool": {
        "encoding": "inplace",
        "label": "bool",
        "numberOfBytes": "1"
      },
      "t_mapping(t_address,t_bool)": {
        "encoding": "mapping",
        "key": "t_address",
        "label": "mapping(address => bool)",
        "numberOfBytes": "32",
        "value": "t_bool"
      }
    }
  }
}